S018000061726475696E6F5F706F6D6F646F726F2E737265634C
S11300000C9461000C947E000C947E000C947E0091
S11300100C947E000C947E000C947E000C947E0064
S11300200C947E000C947E000C947E000C947E0054
S11300300C947E000C947E000C947E000C947E0044
S11300400C9495040C947E000C947E000C947E0019
S11300500C947E000C947E000C947E000C947E0024
S11300600C947E000C947E00000000080002010045
S1130070000304070000000000000000010204085F
S113008010204080010204081020010204081020FE
S1130090040404040404040402020202020203032A
S11300A003030303000000002300260029000000CE
S11300B00000250028002B00000000002400270079
S11300C02A0011241FBECFEFD8E0DEBFCDBF21E050
S11300D0A6E0B1E001C01D92A532B207E1F711E03C
S11300E0A0E0B1E0E6E0FEE002C005900D92A6308B
S11300F0B107D9F70E9484040C9401070C94000002
S11301008F929F92AF92BF92CF92DF92EF92FF9223
S11301100F931F93CF93DF93EC01862FC42ED22E1F
S11301206C874D872E8761E00E944C0560E08C2D22
S11301300E944C0561E08D2D0E944C0561E08C8588
S11301400E94880560E08E850E9488050E94DF0475
S1130150688379838A839B83688779878A879B8767
S1130160EC82FD820E831F831F86DF91CF911F9146
S11301700F91FF90EF90DF90CF90BF90AF909F9042
S11301808F900895CF92DF92EF92FF92CF93DF93F7
S1130190EC010E94DF046B017C0188819981AA81B2
S11301A0BB81B701A601481B590B6A0B7B0B8C81E1
S11301B09D81AE81BF8184179507A607B70798F57F
S11301C060E08C850E9488058F85811108C081E0DC
S11301D08F870E94DF04688779878A879B87888551
S11301E09985AA85BB85C81AD90AEA0AFB0A85E15A
S11301F0C816D104E104F104B0F08D850E94B7055E
S1130200892B11F461E001C060E08E850E948805AD
S113021061E08C850E9488050E94DF0468837983ED
S11302208A839B831F86DF91CF91FF90EF90DF90AD
S1130230CF900895FC01608341832283138214824A
S1130240158216820895CF92DF92EF92FF920F9358
S11302501F93CF93DF93EC0188810E94B7058C0133
S1130260898190E00817190731F00E94DF046B833D
S11302707C838D839E830E94DF046B017C018B81D0
S11302809C81AD81BE81C816D906EA06FB0679F0C9
S11302900E94DF04CB80DC80ED80FE809B01AC01FA
S11302A02C193D094E095F0969017A0106C00E94B3
S11302B0DF04C61AD70AE80AF90A33E3C316D104DD
S11302C0E104F10460F08A8190E00817190739F01D
S11302D081E00115110509F480E08A8301C080E002
S11302E091E0012B09F490E09983DF91CF911F9164
S11302F00F91FF90EF90DF90CF9008951F93CF93CD
S1130300DF93EC01862F142F688361E00E944C0573
S1130310612F88810E9488050E94DF041D82698301
S11303207A838B839C836E837F8388879987DF910D
S1130330CF911F91089561E0FC0180810C948805A0
S113034060E0FC0180810C948805FC0180810E949E
S1130350B70521E0892B09F420E0822F0895CF927C
S1130360DF92EF92FF920F931F93CF93DF93EC01F1
S11303708D81841750F58B010E94DF046B017C0191
S113038089819A81AB81BC81B701A601481B590BB5
S11303906A0B7B0BC801A0E0B0E084179507A607A1
S11303A0B70798F4CE010E94A501811104C0CE01C3
S11303B00E949B0106C0CE010E94A0018D818F5F27
S11303C08D83C982DA82EB82FC82DF91CF911F9107
S11303D00F91FF90EF90DF90CF9008954F925F922E
S11303E06F927F92BF92CF92DF92EF92FF920F9320
S11303F01F93CF93DF938C01B42EEB016436710508
S113040010F4C4E6D0E08B2D90E0880F991F8C9FE8
S113041060018D9FD00C9C9FD00C1124C216D30672
S113042008F469010E94DF04F80146805780608463
S113043071849B01AC012419350946095709E12C43
S1130440F12CC216D306E406F50690F415826683F1
S11304507783808791879E01265F3F4FDC01CB0124
S1130460821B930BA109B10981839283A383B48373
S11304704B2DBE01C801DF91CF911F910F91FF90C9
S1130480EF90DF90CF90BF907F906F905F904F90F0
S11304900C94AF010C949B010C94A00120E931E071
S11304A041E068EC70E00C94EE0120E233E041E0BE
S11304B060E971E00C94EE0124EC39E042E068EC70
S11304C070E00C94EE01CF93DF93EC01862F6883E8
S11304D079834A8361E00E944C0560E08881DF9162
S11304E0CF910C94880521E0FC01228361E0808196
S11304F00C948805FC01128260E080810C948805CC
S113050060E084E00C944C058091140190911501F5
S11305100C945D0464E070E08091140190911501E5
S11305200C946E0480910E0190910F010C942301A0
S113053080910C0190910D010C9423018091120182
S1130540909113010C945D0480911001909111011C
S11305500C945D04EF92FF920F931F93CF93DF935C
S11305600E94800210921701109216018AE090E016
S11305700E949304EC0148EE53E064E170E00E94B1
S11305800104D0931501C09314018AE090E00E9405
S11305909304EC0148EE53E06AE070E00E94010429
S11305A0D0931301C09312018AE090E00E94930457
S11305B0EC0148EE53E067E070E00E940104D09340
S11305C01101C093100187E090E00E949304EC01B4
S11305D020E040E062E00E941A01D0930F01C09332
S11305E00E0187E090E00E949304EC0120E040E0DB
S11305F063E00E941A01D0930D01C0930C0183E0C3
S113060090E00E949304EC0140E069E070E00E94F5
S11306106302D0930B01C0930A018CE090E00E9426
S11306209304EC0140E063E10E947E01D093090150
S1130630C093080180E190E00E949304EC0118EE5D
S1130640E12E13E0F12E00E010E020E141E162E14F
S1130650CE010E948000D0930701C0930601DF9170
S1130660CF911F910F91FF90EF900895CF93DF9357
S1130670C0911601D0911701C430D10509F467C0A7
S113068034F4209741F1229709F441C0B7C0C03136
S1130690D10509F486C0C032D10509F497C0289762
S11306A009F0ACC080910801909109010E945502A3
S11306B080910A0190910B010E947A0280911401A9
S11306C0909115010E9447048091120190911301A9
S11306D00E94470461C080910801909109010E9421
S11306E04A0264E070E080911401909115010E9427
S11306F04B0480910601909107010E94C2000E9460
S11307009202882309F47AC082E090E016C08091B6
S11307100801909109010E944E0280911401909168
S113072015010E9413040E949202811135C00E9497
S11307308402882339F084E090E090931701809339
S113074016015CC00E948A02811126C0DDCF80910F
S11307500801909109010E944C0280910A01909134
S11307600B010E94730280911201909113010E9467
S113077013040E949202882319F088E090E0DDCFF0
S11307800E949802882319F080E190E0D6CF0E945D
S11307909E028111F2CFCFCF109217011092160151
S11307A02DC080910A0190910B010E947A028091E0
S11307B01001909111010E944704809112019091BF
S11307C013010E94470480E290E0B7CF80910801B2
S11307D0909109010E945C02809110019091110195
S11307E00E9413040E94A4028111A5CF0E949202C8
S11307F08111C3CFD0931701C0931601DF91CF911C
S11308000895CF93DF93EC01198218827B836A8366
S11308105D834C830E94DF046E837F83888799877E
S1130820DF91CF910895CF92DF92EF92FF920F93D1
S11308301F93CF93DF93EC010E94DF040E811F818D
S1130840288539856B017C01C01AD10AE20AF30AB2
S1130850970186014C815D816A01E12CF12C0C1514
S11308601D052E053F0550F0288139812F5F3F4F2C
S1130870398328836E837F8388879987DF91CF911B
S11308801F910F91FF90EF90DF90CF900895FC019E
S1130890118210820895CF93DF93EC01862F0E947A
S11308A0B705892B19F084E190E002C08FE090E055
S11308B09B838A83DF91CF910895CF93DF93EC01DB
S11308C00E94130481E0488159812A813B814217A7
S11308D0530708F480E0DF91CF9108950F931F939D
S11308E0CF93DF93EC010A811B810E944B0481E0CA
S11308F02A813B812017310709F480E0DF91CF91F1
S11309001F910F91089508950E94EB040E9483049F
S11309100E94AA02C0E0D0E00E9436032097E1F3CF
S11309200E940000F9CF0C94E0051F920F920FB6BD
S11309300F9211242F933F938F939F93AF93BF9361
S11309408091190190911A01A0911B01B0911C0191
S11309503091180120E3230F2D3720F44096A11D78
S1130960B11D05C023EB230F4196A11DB11D20939A
S113097018018093190190931A01A0931B01B0935D
S11309801C0180911D0190911E01A0911F01B09145
S113099020010196A11DB11D80931D0190931E019C
S11309A0A0931F01B0932001BF91AF919F918F91AC
S11309B03F912F910F900FBE0F901F9018952FB756
S11309C0F8946091190170911A0180911B01909122
S11309D01C012FBF0895789484B5826084BD84B5CA
S11309E0816084BD85B5826085BD85B5816085BD26
S11309F0EEE6F0E0808181608083E1E8F0E010823F
S1130A00808182608083E0E8F0E08081816080837F
S1130A10E1EBF0E0808184608083E0EBF0E08081B2
S1130A2081608083EAE7F0E080818B7F808380812E
S1130A3082608083808181608083808180688083FC
S1130A401092C1000895833081F028F4813099F028
S1130A508230A1F008958730A9F08830B9F084304D
S1130A60D1F4809180008F7D03C0809180008F77C6
S1130A7080938000089584B58F7702C084B58F7DFC
S1130A8084BD08958091B0008F7703C08091B00039
S1130A908F7D8093B0000895CF93DF9390E0FC01A5
S1130AA0E458FF4F2491FC01E057FF4F84918823C1
S1130AB061F190E0880F991FFC01E854FF4FC59144
S1130AC0D491FC01E255FF4FA591B491611109C085
S1130AD09FB7F8948881209582238883EC912E23F4
S1130AE00BC0623061F49FB7F8948881322F30953F
S1130AF083238883EC912E2B2C939FBF06C08FB742
S1130B00F894E8812E2B28838FBFDF91CF9108952D
S1130B101F93CF93DF93282F30E0F901E859FF4F5B
S1130B208491F901E458FF4FD491F901E057FF4F44
S1130B30C491CC23C1F0162F81110E942305EC2F00
S1130B40F0E0EE0FFF1FE255FF4FA591B4919FB760
S1130B50F894111104C08C91D095D82302C0EC9163
S1130B60DE2BDC939FBFDF91CF911F910895CF932C
S1130B70DF93282F30E0F901E859FF4F8491F90100
S1130B80E458FF4FD491F901E057FF4FC491CC23AF
S1130B9091F081110E942305EC2FF0E0EE0FFF1F6E
S1130BA0EC55FF4FA591B491EC91ED2381E090E0D9
S1130BB021F480E002C080E090E0DF91CF910895BD
S1130BC00F931F93CF93DF938230910510F482E04B
S1130BD090E0E0912301F091240120E030E0A0E0D6
S1130BE0B0E0309719F14081518102811381481797
S1130BF05907C8F08417950769F4109731F01296D5
S1130C000C93129713961C9327C0009323011093FF
S1130C10240122C02115310519F04217530718F495
S1130C209A01BD01EF01DF01F801DBCF2115310588
S1130C30F9F0281B390B2430310580F48A819B811B
S1130C406115710521F0FB019383828304C09093A5
S1130C50240180932301FE01329644C0FE01E20F79
S1130C60F31F8193919322503109398328833AC029
S1130C702091210130912201232B41F42091020182
S1130C80309103013093220120932101209100012E
S1130C90309101012115310541F42DB73EB7409142
S1130CA0040150910501241B350BE0912101F091C1
S1130CB02201E217F307A0F42E1B3F0B2817390774
S1130CC078F0AC014E5F5F4F2417350748F04E0FA4
S1130CD05F1F50932201409321018193919302C09D
S1130CE0E0E0F0E0CF01DF91CF911F910F910895E3
S1130CF0CF93DF93009709F481C0FC0132971382EC
S1130D001282A0912301B0912401109781F42081D3
S1130D103181820F931F20912101309122012817E4
S1130D20390751F5F0932201E093210167C0ED01E9
S1130D3020E030E0CE17DF0740F44A815B819E015A
S1130D4041155105F1F0EA01F5CFD383C283408107
S1130D505181840F951FC817D90759F48881998147
S1130D60840F951F0296918380838A819B8193834C
S1130D7082832115310529F4F0932401E0932301A2
S1130D803DC0E901FB83EA8349915991C40FD51F02
S1130D90EC17FD0761F480819181840F951F029601
S1130DA0E90199838883828193819B838A83E0E02C
S1130DB0F0E012968D919C911397009719F0FD0124
S1130DC0DC01F7CF8D919C9111979D012E5F3F4FD0
S1130DD0820F931F20912101309122012817390796
S1130DE069F4309729F4109224011092230102C06F
S1130DF013821282B0932201A0932101DF91CF913B
S1090E000895F894FFCFF1
S1090E060000250120009C
S9030000FC
