:100000000C9462000C948A000C948A000C948A0070
:100010000C948A000C948A000C948A000C948A0038
:100020000C948A000C948A000C948A000C948A0028
:100030000C948A000C948A000C948A000C948A0018
:100040000C94E3070C948A000C947D060C94AF0684
:100050000C948A000C948A000C948A000C948A00F8
:100060000C948A000C948A00000000080002010031
:100070000003040700000000000000000102040863
:100080001020408001020408102001020408102002
:10009000040404040404040402020202020203032E
:1000A00003030303000000002300260029000000D2
:1000B0000000250028002B0000000000240027007D
:1000C0002A00DF0611241FBECFEFD8E0DEBFCDBF70
:1000D00011E0A0E0B1E0E8EFF4E102C005900D927C
:1000E000A838B107D9F722E0A8E8B1E001C01D9215
:1000F000A434B207E1F710E0C2E6D0E004C02197D3
:10010000FE010E945309C136D107C9F70E940D07AD
:100110000C947A0A0C9400008F929F92AF92BF9237
:10012000CF92DF92EF92FF920F931F93CF93DF93C3
:10013000EC01862FC42ED22E6C874D872E8761E06E
:100140000E949D0860E08C2D0E949D0861E08D2D2D
:100150000E949D0861E08C850E94D90860E08E8530
:100160000E94D9080E942D08688379838A839B8323
:10017000688779878A879B87EC82FD820E831F833D
:100180001F86DF91CF911F910F91FF90EF90DF902D
:10019000CF90BF90AF909F908F900895CF92DF92B5
:1001A000EF92FF92CF93DF93EC010E942D086B0139
:1001B0007C0188819981AA81BB81B701A601481B76
:1001C000590B6A0B7B0B8C819D81AE81BF8184179B
:1001D0009507A607B70798F560E08C850E94D908B7
:1001E0008F85811108C081E08F870E942D08688764
:1001F00079878A879B8788859985AA85BB85C81A50
:10020000D90AEA0AFB0A85E1C816D104E104F1041F
:10021000B0F08D850E940809892B11F461E001C0BE
:1002200060E08E850E94D90861E08C850E94D90823
:100230000E942D08688379838A839B831F86DF91C0
:10024000CF91FF90EF90DF90CF900895FC016083F5
:100250004183228313821482158216820895CF92DD
:10026000DF92EF92FF920F931F93CF93DF93EC01F6
:1002700088810E9408098C01898190E0081719077C
:1002800031F00E942D086B837C838D839E830E94B6
:100290002D086B017C018B819C81AD81BE81C816CC
:1002A000D906EA06FB0679F00E942D08CB80DC8097
:1002B000ED80FE809B01AC012C193D094E095F09C0
:1002C00069017A0106C00E942D08C61AD70AE80AF9
:1002D000F90A33E3C316D104E104F10460F08A8122
:1002E00090E00817190739F081E00115110509F4AC
:1002F00080E08A8301C080E091E0012B09F490E066
:100300009983DF91CF911F910F91FF90EF90DF9034
:10031000CF9008951F93CF93DF93EC01862F142F76
:10032000688361E00E949D08612F88810E94D9083E
:100330000E942D081D8269837A838B839C836E8340
:100340007F8388879987DF91CF911F91089561E01E
:10035000FC0180810C94D90860E0FC0180810C9440
:10036000D908FC0180810E94080921E0892B09F449
:1003700020E0822F0895CF92DF92EF92FF920F93A9
:100380001F93CF93DF93EC018D81841750F58B0180
:100390000E942D086B017C0189819A81AB81BC810F
:1003A000B701A601481B590B6A0B7B0BC801A0E0E3
:1003B000B0E084179507A607B70798F4CE010E940E
:1003C000B101811104C0CE010E94A70106C0CE0177
:1003D0000E94AC018D818F5F8D83C982DA82EB82AE
:1003E000FC82DF91CF911F910F91FF90EF90DF90F2
:1003F000CF9008954F925F926F927F92BF92CF926B
:10040000DF92EF92FF920F931F93CF93DF938C01B4
:10041000B42EEB016436710510F4C4E6D0E08B2DE8
:1004200090E0880F991F8C9F60018D9FD00C9C9F3E
:10043000D00C1124C216D30608F469010E942D08BD
:10044000F80146805780608471849B01AC012419B7
:10045000350946095709E12CF12CC216D306E406EA
:10046000F50690F4158266837783808791879E01D5
:10047000265F3F4FDC01CB01821B930BA109B10921
:1004800081839283A383B4834B2DBE01C801DF9186
:10049000CF911F910F91FF90EF90DF90CF90BF9081
:1004A0007F906F905F904F900C94BB010C94A701CC
:1004B0000C94AC0120E931E041E068EC70E00C9470
:1004C000FA0120E233E041E060E971E00C94FA01C6
:1004D00024EC39E042E068EC70E00C94FA01CF9330
:1004E000DF93EC01862F688379834A8361E00E9461
:1004F0009D0860E08881DF91CF910C94D90821E0BC
:10050000FC01228361E080810C94D908FC011282F5
:1005100060E080810C94D90860E084E00C949D0830
:1005200080919601909197010C94160564E070E01B
:1005300080919601909197010C94270580919001EC
:10054000909191010C942F0180918E0190918F01D7
:100550000C942F0180919401909195010C941605B3
:1005600080919201909193010C941605EF92FF9265
:100570000F931F93CF93DF930E948C0226E040E8F5
:1005800055E260E070E08AE991E00E94180666E0BA
:1005900071E08AE991E00E9463071092990110923C
:1005A00098018AE090E00E941C07EC0148EE53E0BD
:1005B00064E170E00E94B204D0939701C093960169
:1005C0008AE090E00E941C07EC0148EE53E06AE0EC
:1005D00070E00E94B204D0939501C09394018AE028
:1005E00090E00E941C07EC0148EE53E067E070E0E9
:1005F0000E94B204D0939301C093920187E090E0EF
:100600000E941C07EC0120E040E062E00E9426010D
:10061000D0939101C093900187E090E00E941C0765
:10062000EC0120E040E063E00E942601D0938F01BE
:10063000C0938E0183E090E00E941C07EC0140E033
:1006400069E070E00E946F02D0938D01C0938C012D
:100650008CE090E00E941C07EC0140E063E10E9406
:100660008A01D0938B01C0938A0180E190E00E94BF
:100670001C07EC0118EEE12E13E0F12E00E010E073
:1006800020E141E162E1CE010E948C00D09389011A
:10069000C0938801DF91CF911F910F91FF90EF9050
:1006A0000895CF93DF93C0919801D0919901C43000
:1006B000D10509F49FC034F4209771F1229709F411
:1006C0004DC04DC1C031D10509F4EAC0C032D105D9
:1006D00009F401C1289709F042C16DE471E08AE98B
:1006E00091E00E94630780918A0190918B010E94A2
:1006F000610280918C0190918D010E94860280910F
:100700009601909197010E9400058091940190912B
:1007100095010E940005BFC069E171E08AE991E09E
:100720000E94630780918A0190918B010E9456027A
:1007300064E070E080919601909197010E94040519
:1007400080918801909189010E94CE000E949E02B2
:10075000882309F404C182E090E042C06EE171E0B8
:100760008AE991E00E9463076BE271E08AE991E017
:100770000E945D0780919601909197010E94C404A8
:100780004AE050E0BC018AE991E00E94CB0761E4B5
:1007900071E08AE991E00E945D0780919601909155
:1007A00097010E94C8044AE050E0BC018AE991E048
:1007B0000E94D10780918A0190918B010E945A0278
:1007C00080919601909197010E94CC040E949E0214
:1007D000811161C00E949002882339F084E090E08A
:1007E0009093990180939801BAC00E94960281115A
:1007F00052C0B1CF63E471E08AE991E00E946307DF
:100800006BE271E08AE991E00E945D0780919401BA
:10081000909195010E94C4044AE050E0BC018AE92D
:1008200091E00E94CB0761E471E08AE991E00E94C7
:100830005D0780919401909195010E94C8044AE05F
:1008400050E0BC018AE991E00E94D10780918A01C1
:1008500090918B010E94580280918C0190918D01A2
:100860000E947F0280919401909195010E94CC0496
:100870000E949E02882319F088E090E0B1CF0E9488
:10088000A402882319F080E190E0AACF0E94AA0276
:100890008111F2CFA3CF10929901109298015FC0FD
:1008A00065E571E08AE991E00E94630780918C011F
:1008B00090918D010E948602809192019091930106
:1008C0000E94000580919401909195010E9400057D
:1008D00080E290E085CF6EE571E08AE991E00E94C8
:1008E00063076BE271E08AE991E00E945D07809105
:1008F0009201909193010E94C4044AE050E0BC012F
:100900008AE991E00E94CB0761E471E08AE991E015
:100910000E945D0780919201909193010E94C8040A
:100920004AE050E0BC018AE991E00E94D107809141
:100930008A0190918B010E946802809192019091AE
:1009400093010E94CC040E94B002811147CF0E9403
:100950009E02811191CFD0939901C0939801DF91AC
:10096000CF910895CF93DF93EC01198218827B8396
:100970006A835D834C830E942D086E837F83888702
:100980009987DF91CF910895FC018081918108952D
:10099000FC01828193810895CF92DF92EF92FF92C2
:1009A0000F931F93CF93DF93EC010E942D080E81CC
:1009B0001F81288539856B017C01C01AD10AE20AA2
:1009C000F30A970186014C815D816A01E12CF12CCB
:1009D0000C151D052E053F0550F0288139812F5F2C
:1009E0003F4F398328836E837F8388879987DF9180
:1009F000CF911F910F91FF90EF90DF90CF900895CE
:100A0000FC01118210820895CF93DF93EC01862FB1
:100A10000E940809892B19F084E190E002C08FE060
:100A200090E09B838A83DF91CF910895CF93DF93EA
:100A3000EC010E94CC0481E0488159812A813B81EC
:100A40004217530708F480E0DF91CF9108950F9388
:100A50001F93CF93DF93EC010A811B810E94040551
:100A600081E02A813B812017310709F480E0DF9182
:100A7000CF911F910F910895FC01918D228D892FA7
:100A800090E0805C9F4F821B91098F739927089596
:100A9000FC01918D828D981731F0828DE80FF11D48
:100AA000858D90E008958FEF9FEF0895FC01918D63
:100AB000828D981761F0828DDF01A80FB11D5D96C0
:100AC0008C91928D9F5F9F73928F90E008958FEF2E
:100AD0009FEF0895FC01538D448D252F30E0842F26
:100AE00090E0821B930B541710F0CF960895019756
:100AF000089585ED96E0892B49F080E090E0892B00
:100B000029F00E94D50681110C9400000895FC0183
:100B1000848DDF01A80FB11DA35ABF4F2C91848D86
:100B200090E001968F739927848FA689B7892C93BB
:100B3000A089B1898C91837080648C93938D848D0E
:100B4000981306C00288F389E02D80818F7D808311
:100B50000895EF92FF920F931F93CF93DF93EC01D1
:100B600081E0888F9B8D8C8D981305C0E889F98969
:100B7000808185FD26C0F62E0B8D10E00F5F1F4F84
:100B80000F731127E02E8C8DE8120CC00FB607FCF6
:100B9000FACFE889F989808185FFF5CFCE010E94DF
:100BA0008705F1CF8B8DFE01E80FF11DE35AFF4F52
:100BB000F0829FB7F8940B8FEA89FB89808180626D
:100BC0000AC09FB7F894EE89FF896083E889F989A4
:100BD00080818370806480839FBF81E090E0DF919B
:100BE000CF911F910F91FF90EF900895CF93DF93D6
:100BF000EC01888D8823C9F0EA89FB89808185FD15
:100C000005C0A889B9898C9186FD0FC00FB607FC75
:100C1000F5CF808185FFF2CFA889B9898C9185FFB6
:100C2000EDCFCE010E948705E7CFDF91CF910895E8
:100C3000CF92DF92EF92FF921F93CF93DF93EC015D
:100C40006A017B01122FE889F98982E080834115CE
:100C5000514E61057105B1F060E079E08DE390E0FF
:100C6000A70196010E943109DA01C9010197A10982
:100C7000B109B695A795979587959C01211580E1B7
:100C80003807A8F0E889F989108260E874E88EE1F5
:100C900090E0A70196010E943109DA01C90101978C
:100CA000A109B109B695A795979587959C01EC8503
:100CB000FD853083EE85FF852083188EEC89FD89C4
:100CC0001083EA89FB89808180618083EA89FB89BE
:100CD000808188608083EA89FB8980818068808345
:100CE000EA89FB8980818F7D8083DF91CF911F917D
:100CF000FF90EF90DF90CF9008951F920F920FB664
:100D00000F9211242F938F939F93EF93FF93E09172
:100D1000AA01F091AB018081E091B001F091B101A5
:100D200082FD12C090818091B3018F5F8F732091FB
:100D3000B401821751F0E091B301F0E0E656FE4FA6
:100D4000958F8093B30101C08081FF91EF919F91B6
:100D50008F912F910F900FBE0F901F9018951F929B
:100D60000F920FB60F9211242F933F934F935F93DF
:100D70006F937F938F939F93AF93BF93EF93FF9363
:100D80008AE991E00E948705FF91EF91BF91AF91B1
:100D90009F918F917F916F915F914F913F912F9193
:100DA0000F900FBE0F901F9018958AE991E00E9456
:100DB0003C0521E0892B09F420E0822F0895EAE91F
:100DC000F1E01382128288EE93E0A0E0B0E0848329
:100DD0009583A683B7838AE691E09183808385EC2F
:100DE00090E09587848784EC90E09787868780ECF5
:100DF00090E0918B808B81EC90E0938B828B82ECE6
:100E000090E0958B848B86EC90E0978B868B118E8F
:100E1000128E138E148E089508950E9439080E9430
:100E20000C070E94B602C9E7D5E00E945103209743
:100E3000E1F30E947905F9CF0C945909CF92DF9222
:100E4000EF92FF920F931F93CF93DF936C017A0180
:100E50008B01C0E0D0E0CE15DF0581F0D8016D91A7
:100E60008D01D601ED91FC910190F081E02DC6013C
:100E70000995892B11F02196EECF7E01C701DF91F4
:100E8000CF911F910F91FF90EF90DF90CF90089539
:100E90006115710579F0FB0101900020E9F73197A8
:100EA000AF01461B570BDC01ED91FC910280F381F1
:100EB000E02D099480E090E008950C94480768E7DD
:100EC00071E00C9448070F931F93CF93DF93EC01CD
:100ED0000E9448078C01CE010E945F07800F911F7E
:100EE000DF91CF911F910F9108958F929F92AF92B2
:100EF000BF92EF92FF920F931F93CF93DF93CDB7E3
:100F0000DEB7A1970FB6F894DEBF0FBECDBF7C0150
:100F1000FA01CB0119A2223008F42AE08E010F5DFC
:100F20001F4F822E912CA12CB12CBF01A501940141
:100F30000E943109F901CA01015011096A3010F407
:100F4000605D01C0695CD8016C93232B242B252B99
:100F500061F7B801C7010E944807A1960FB6F8943F
:100F6000DEBF0FBECDBFDF91CF911F910F91FF90DC
:100F7000EF90BF90AF909F908F900895211531050D
:100F800041F4DC01ED91FC910190F081E02D642FA2
:100F900009940C9475079A01AB0160E070E00C9421
:100FA000BE070F931F93CF93DF93EC010E94CB07F3
:100FB0008C01CE010E945F07800F911FDF91CF91BE
:100FC0001F910F9108951F920F920FB60F92112447
:100FD0002F933F938F939F93AF93BF93809138024A
:100FE00090913902A0913A02B0913B0230913702C0
:100FF00023E0230F2D3720F40196A11DB11D05C05C
:1010000026E8230F0296A11DB11D2093370280937D
:10101000380290933902A0933A02B0933B02809138
:101020003C0290913D02A0913E02B0913F02019698
:10103000A11DB11D80933C0290933D02A0933E02FE
:10104000B0933F02BF91AF919F918F913F912F91AC
:101050000F900FBE0F901F9018952FB7F8946091C6
:1010600038027091390280913A0290913B022FBF71
:101070000895789484B5826084BD84B5816084BD10
:1010800085B5826085BD85B5816085BDEEE6F0E001
:10109000808181608083E1E8F0E01082808182605D
:1010A0008083808181608083E0E8F0E080818160DE
:1010B0008083E1EBF0E0808184608083E0EBF0E00E
:1010C000808181608083EAE7F0E0808184608083B2
:1010D000808182608083808181608083808180685C
:1010E00080831092C1000895833081F028F481300C
:1010F00099F08230A1F008958730A9F08830B9F0D6
:101100008430D1F4809180008F7D03C08091800075
:101110008F7780938000089584B58F7702C084B55F
:101120008F7D84BD08958091B0008F7703C080913A
:10113000B0008F7D8093B0000895CF93DF9390E04F
:10114000FC01E458FF4F2491FC01E057FF4F8491CC
:10115000882361F190E0880F991FFC01E854FF4F4C
:10116000C591D491FC01E255FF4FA591B491611155
:1011700009C09FB7F8948881209582238883EC91D9
:101180002E230BC0623061F49FB7F8948881322F10
:10119000309583238883EC912E2B2C939FBF06C020
:1011A0008FB7F894E8812E2B28838FBFDF91CF91E2
:1011B00008951F93CF93DF93282F30E0F901E8596A
:1011C000FF4F8491F901E458FF4FD491F901E057A2
:1011D000FF4FC491CC23C1F0162F81110E947408D7
:1011E000EC2FF0E0EE0FFF1FE255FF4FA591B491F9
:1011F0009FB7F894111104C08C91D095D82302C0E8
:10120000EC91DE2BDC939FBFDF91CF911F9108956E
:10121000CF93DF93282F30E0F901E859FF4F8491F5
:10122000F901E458FF4FD491F901E057FF4FC49101
:10123000CC2391F081110E947408EC2FF0E0EE0FA6
:10124000FF1FEC55FF4FA591B491EC91ED2381E088
:1012500090E021F480E002C080E090E0DF91CF9147
:101260000895A1E21A2EAA1BBB1BFD010DC0AA1FE7
:10127000BB1FEE1FFF1FA217B307E407F50720F0FF
:10128000A21BB30BE40BF50B661F771F881F991F7A
:101290001A9469F760957095809590959B01AC01C3
:1012A000BD01CF010895EE0FFF1F0590F491E02DD1
:1012B00009940F931F93CF93DF938230910510F41D
:1012C00082E090E0E0914202F091430220E030E0C1
:1012D000A0E0B0E0309719F1408151810281138183
:1012E00048175907C8F08417950769F4109731F02B
:1012F00012960C93129713961C9327C000934202E8
:101300001093430222C02115310519F042175307EB
:1013100018F49A01BD01EF01DF01F801DBCF2115BF
:101320003105F9F0281B390B2430310580F48A810E
:101330009B816115710521F0FB019383828304C0B9
:101340009093430280934202FE01329644C0FE0114
:10135000E20FF31F8193919322503109398328833F
:101360003AC02091400230914102232B41F4209158
:1013700002013091030130934102209340022091F9
:101380000001309101012115310541F42DB73EB71F
:101390004091040150910501241B350BE09140025E
:1013A000F0914102E217F307A0F42E1B3F0B281720
:1013B000390778F0AC014E5F5F4F2417350748F0CE
:1013C0004E0F5F1F509341024093400281939193CF
:1013D00002C0E0E0F0E0CF01DF91CF911F910F91CB
:1013E0000895CF93DF93009709F481C0FC013297F1
:1013F00013821282A0914202B0914302109781F4AD
:1014000020813181820F931F20914002309141024F
:101410002817390751F5F0934102E093400267C065
:10142000ED0120E030E0CE17DF0740F44A815B8118
:101430009E0141155105F1F0EA01F5CFD383C28336
:1014400040815181840F951FC817D90759F48881AD
:101450009981840F951F0296918380838A819B8155
:10146000938382832115310529F4F0934302E0939D
:1014700042023DC0E901FB83EA8349915991C40FBF
:10148000D51FEC17FD0761F480819181840F951FB2
:101490000296E90199838883828193819B838A8361
:1014A000E0E0F0E012968D919C911397009719F06F
:1014B000FD01DC01F7CF8D919C9111979D012E5F6D
:1014C0003F4F820F931F2091400230914102281715
:1014D000390769F4309729F41092430210924202BE
:1014E00002C013821282B0934102A0934002DF91A6
:0814F000CF910895F894FFCF9D
:1014F800000044022000496E697469616C697A656C
:1015080020436F756E7465720049444C4500544918
:101518004D455F52554E4E494E47002020202054DD
:10152800696D65722F5468726573686F6C643A20D0
:10153800002F00564942524154494E470057414CEA
:101548004B494E4700534E4F4F5A494E4700534E52
:101558004F4F5A45440000000000A9051E076A05C0
:10156800F6053C05560548050D0A006E616E0069D2
:081578006E66006F766600004C
:00000001FF
